{
  "contractName": "Loan",
  "abi": [
    {
      "inputs": [
        {
          "internalType": "string",
          "name": "arbitralInstitutionName",
          "type": "string"
        }
      ],
      "stateMutability": "nonpayable",
      "type": "constructor"
    },
    {
      "inputs": [],
      "name": "arbitralInstitution",
      "outputs": [
        {
          "internalType": "string",
          "name": "ArbitralName",
          "type": "string"
        },
        {
          "internalType": "address",
          "name": "ArbitralInstitutionAddress",
          "type": "address"
        }
      ],
      "stateMutability": "view",
      "type": "function"
    },
    {
      "inputs": [
        {
          "internalType": "uint256",
          "name": "",
          "type": "uint256"
        }
      ],
      "name": "banks",
      "outputs": [
        {
          "internalType": "string",
          "name": "bankName",
          "type": "string"
        }
      ],
      "stateMutability": "view",
      "type": "function"
    },
    {
      "inputs": [
        {
          "internalType": "uint256",
          "name": "",
          "type": "uint256"
        }
      ],
      "name": "companies",
      "outputs": [
        {
          "internalType": "string",
          "name": "companyName",
          "type": "string"
        },
        {
          "internalType": "string",
          "name": "companyType",
          "type": "string"
        },
        {
          "internalType": "bool",
          "name": "isTrusted",
          "type": "bool"
        },
        {
          "internalType": "uint256",
          "name": "creditAsset",
          "type": "uint256"
        },
        {
          "internalType": "uint256",
          "name": "realMoney",
          "type": "uint256"
        }
      ],
      "stateMutability": "view",
      "type": "function"
    },
    {
      "inputs": [
        {
          "internalType": "uint256",
          "name": "",
          "type": "uint256"
        }
      ],
      "name": "receipts",
      "outputs": [
        {
          "internalType": "string",
          "name": "Name_A",
          "type": "string"
        },
        {
          "internalType": "string",
          "name": "Name_B",
          "type": "string"
        },
        {
          "internalType": "bool",
          "name": "bankParticipation",
          "type": "bool"
        },
        {
          "internalType": "bool",
          "name": "isRealMoney",
          "type": "bool"
        },
        {
          "internalType": "uint256",
          "name": "amount",
          "type": "uint256"
        }
      ],
      "stateMutability": "view",
      "type": "function"
    },
    {
      "inputs": [],
      "name": "trustedCompanyHasFinishedWithBank",
      "outputs": [
        {
          "internalType": "bool",
          "name": "",
          "type": "bool"
        }
      ],
      "stateMutability": "view",
      "type": "function"
    },
    {
      "inputs": [
        {
          "internalType": "string",
          "name": "cpName",
          "type": "string"
        },
        {
          "internalType": "string",
          "name": "cpType",
          "type": "string"
        },
        {
          "internalType": "bool",
          "name": "whetherTrusted",
          "type": "bool"
        }
      ],
      "name": "addCompany",
      "outputs": [
        {
          "internalType": "bool",
          "name": "",
          "type": "bool"
        }
      ],
      "stateMutability": "nonpayable",
      "type": "function"
    },
    {
      "inputs": [
        {
          "internalType": "string",
          "name": "bName",
          "type": "string"
        }
      ],
      "name": "addBank",
      "outputs": [
        {
          "internalType": "bool",
          "name": "",
          "type": "bool"
        }
      ],
      "stateMutability": "nonpayable",
      "type": "function"
    },
    {
      "inputs": [
        {
          "internalType": "string",
          "name": "bName",
          "type": "string"
        },
        {
          "internalType": "string",
          "name": "cpName",
          "type": "string"
        },
        {
          "internalType": "uint256",
          "name": "amt",
          "type": "uint256"
        }
      ],
      "name": "bank_giveCreditAssetTo_trustedCompany",
      "outputs": [
        {
          "internalType": "bool",
          "name": "",
          "type": "bool"
        }
      ],
      "stateMutability": "nonpayable",
      "type": "function"
    },
    {
      "inputs": [
        {
          "internalType": "string",
          "name": "companyName_A",
          "type": "string"
        },
        {
          "internalType": "string",
          "name": "companyName_B",
          "type": "string"
        },
        {
          "internalType": "uint256",
          "name": "amt",
          "type": "uint256"
        }
      ],
      "name": "companyA_giveCreditAssetTo_companyB",
      "outputs": [
        {
          "internalType": "bool",
          "name": "",
          "type": "bool"
        }
      ],
      "stateMutability": "nonpayable",
      "type": "function"
    },
    {
      "inputs": [
        {
          "internalType": "string",
          "name": "bName",
          "type": "string"
        },
        {
          "internalType": "string",
          "name": "cpName",
          "type": "string"
        },
        {
          "internalType": "uint256",
          "name": "amt",
          "type": "uint256"
        }
      ],
      "name": "bank_giveRealMoneyTo_company",
      "outputs": [
        {
          "internalType": "bool",
          "name": "",
          "type": "bool"
        }
      ],
      "stateMutability": "nonpayable",
      "type": "function"
    },
    {
      "inputs": [
        {
          "internalType": "string",
          "name": "cpName",
          "type": "string"
        },
        {
          "internalType": "string",
          "name": "bName",
          "type": "string"
        },
        {
          "internalType": "uint256",
          "name": "amt",
          "type": "uint256"
        }
      ],
      "name": "trustedCompany_repaidTo_bank",
      "outputs": [
        {
          "internalType": "bool",
          "name": "",
          "type": "bool"
        }
      ],
      "stateMutability": "nonpayable",
      "type": "function"
    },
    {
      "inputs": [
        {
          "internalType": "string",
          "name": "cpName",
          "type": "string"
        },
        {
          "internalType": "string",
          "name": "bName",
          "type": "string"
        }
      ],
      "name": "trustedCompany_FinishWith_Bank",
      "outputs": [
        {
          "internalType": "bool",
          "name": "",
          "type": "bool"
        }
      ],
      "stateMutability": "nonpayable",
      "type": "function"
    },
    {
      "inputs": [
        {
          "internalType": "string",
          "name": "cpName",
          "type": "string"
        }
      ],
      "name": "getCompanyInfoByName",
      "outputs": [
        {
          "internalType": "string",
          "name": "",
          "type": "string"
        },
        {
          "internalType": "string",
          "name": "",
          "type": "string"
        },
        {
          "internalType": "bool",
          "name": "",
          "type": "bool"
        },
        {
          "internalType": "uint256",
          "name": "",
          "type": "uint256"
        },
        {
          "internalType": "uint256",
          "name": "",
          "type": "uint256"
        }
      ],
      "stateMutability": "view",
      "type": "function"
    },
    {
      "inputs": [
        {
          "internalType": "string",
          "name": "bName",
          "type": "string"
        }
      ],
      "name": "getBankInfoByName",
      "outputs": [
        {
          "internalType": "string",
          "name": "",
          "type": "string"
        }
      ],
      "stateMutability": "view",
      "type": "function"
    },
    {
      "inputs": [
        {
          "internalType": "string",
          "name": "bName",
          "type": "string"
        },
        {
          "internalType": "string",
          "name": "cpName",
          "type": "string"
        }
      ],
      "name": "getAmountOfCreditAsset_bankGiveToTrustedCompany",
      "outputs": [
        {
          "internalType": "uint256",
          "name": "",
          "type": "uint256"
        }
      ],
      "stateMutability": "view",
      "type": "function"
    },
    {
      "inputs": [],
      "name": "getCompanyNum",
      "outputs": [
        {
          "internalType": "uint256",
          "name": "",
          "type": "uint256"
        }
      ],
      "stateMutability": "view",
      "type": "function"
    },
    {
      "inputs": [],
      "name": "getBankNum",
      "outputs": [
        {
          "internalType": "uint256",
          "name": "",
          "type": "uint256"
        }
      ],
      "stateMutability": "view",
      "type": "function"
    },
    {
      "inputs": [],
      "name": "getReceiptNum",
      "outputs": [
        {
          "internalType": "uint256",
          "name": "",
          "type": "uint256"
        }
      ],
      "stateMutability": "view",
      "type": "function"
    }
  ],
  "bytecode": "0x60806040526000600760006101000a81548160ff0219169083151502179055503480156200002c57600080fd5b5060405162004a0e38038062004a0e833981810160405260208110156200005257600080fd5b81019080805160405193929190846401000000008211156200007357600080fd5b838201915060208201858111156200008a57600080fd5b8251866001820283011164010000000082111715620000a857600080fd5b8083526020830192505050908051906020019080838360005b83811015620000de578082015181840152602081019050620000c1565b50505050905090810190601f1680156200010c5780820380516001836020036101000a031916815260200191505b5060405250505060405180604001604052808281526020013373ffffffffffffffffffffffffffffffffffffffff168152506000808201518160000190805190602001906200015d929190620001af565b5060208201518160010160006101000a81548173ffffffffffffffffffffffffffffffffffffffff021916908373ffffffffffffffffffffffffffffffffffffffff1602179055509050505062000255565b828054600181600116156101000203166002900490600052602060002090601f016020900481019282601f10620001f257805160ff191683800117855562000223565b8280016001018555821562000223579182015b828111156200022257825182559160200191906001019062000205565b5b50905062000232919062000236565b5090565b5b808211156200025157600081600090555060010162000237565b5090565b6147a980620002656000396000f3fe608060405234801561001057600080fd5b50600436106101155760003560e01c806385553a82116100a2578063ab1e075811610071578063ab1e075814610d14578063b22c1b3a14610e7c578063dcff537614610fb0578063eb03082714611167578063f5edc9d71461118557610115565b806385553a821461094d57806396ed5d861461096b5780639d36808b14610a3c578063aa0aaf9114610bae57610115565b80632813d19d116100e95780632813d19d146103ad5780632bcbefc4146104d75780634719e1a0146106495780634fb091b6146107bb57806382f2ad8c1461092f57610115565b806285ae2b1461011a57806301e24e3d146101c15780630f7ee1ec146101e157806317b1f5ac1461030d575b600080fd5b6101466004803603602081101561013057600080fd5b81019080803590602001909291905050506112f7565b6040518080602001828103825283818151815260200191508051906020019080838360005b8381101561018657808201518184015260208101905061016b565b50505050905090810190601f1680156101b35780820380516001836020036101000a031916815260200191505b509250505060405180910390f35b6101c96113ba565b60405180821515815260200191505060405180910390f35b61020d600480360360208110156101f757600080fd5b81019080803590602001909291905050506113cd565b60405180806020018060200186151581526020018515158152602001848152602001838103835288818151815260200191508051906020019080838360005b8381101561026757808201518184015260208101905061024c565b50505050905090810190601f1680156102945780820380516001836020036101000a031916815260200191505b50838103825287818151815260200191508051906020019080838360005b838110156102cd5780820151818401526020810190506102b2565b50505050905090810190601f1680156102fa5780820380516001836020036101000a031916815260200191505b5097505050505050505060405180910390f35b61031561155a565b60405180806020018373ffffffffffffffffffffffffffffffffffffffff168152602001828103825284818151815260200191508051906020019080838360005b83811015610371578082015181840152602081019050610356565b50505050905090810190601f16801561039e5780820380516001836020036101000a031916815260200191505b50935050505060405180910390f35b6103d9600480360360208110156103c357600080fd5b8101908080359060200190929190505050611624565b6040518080602001806020018615158152602001858152602001848152602001838103835288818151815260200191508051906020019080838360005b83811015610431578082015181840152602081019050610416565b50505050905090810190601f16801561045e5780820380516001836020036101000a031916815260200191505b50838103825287818151815260200191508051906020019080838360005b8381101561049757808201518184015260208101905061047c565b50505050905090810190601f1680156104c45780820380516001836020036101000a031916815260200191505b5097505050505050505060405180910390f35b610631600480360360608110156104ed57600080fd5b810190808035906020019064010000000081111561050a57600080fd5b82018360208201111561051c57600080fd5b8035906020019184600183028401116401000000008311171561053e57600080fd5b91908080601f016020809104026020016040519081016040528093929190818152602001838380828437600081840152601f19601f820116905080830192505050505050509192919290803590602001906401000000008111156105a157600080fd5b8201836020820111156105b357600080fd5b803590602001918460018302840111640100000000831117156105d557600080fd5b91908080601f016020809104026020016040519081016040528093929190818152602001838380828437600081840152601f19601f820116905080830192505050505050509192919290803590602001909291905050506117a4565b60405180821515815260200191505060405180910390f35b6107a36004803603606081101561065f57600080fd5b810190808035906020019064010000000081111561067c57600080fd5b82018360208201111561068e57600080fd5b803590602001918460018302840111640100000000831117156106b057600080fd5b91908080601f016020809104026020016040519081016040528093929190818152602001838380828437600081840152601f19601f8201169050808301925050505050505091929192908035906020019064010000000081111561071357600080fd5b82018360208201111561072557600080fd5b8035906020019184600183028401116401000000008311171561074757600080fd5b91908080601f016020809104026020016040519081016040528093929190818152602001838380828437600081840152601f19601f82011690508083019250505050505050919291929080359060200190929190505050611d4e565b60405180821515815260200191505060405180910390f35b610917600480360360608110156107d157600080fd5b81019080803590602001906401000000008111156107ee57600080fd5b82018360208201111561080057600080fd5b8035906020019184600183028401116401000000008311171561082257600080fd5b91908080601f016020809104026020016040519081016040528093929190818152602001838380828437600081840152601f19601f8201169050808301925050505050505091929192908035906020019064010000000081111561088557600080fd5b82018360208201111561089757600080fd5b803590602001918460018302840111640100000000831117156108b957600080fd5b91908080601f016020809104026020016040519081016040528093929190818152602001838380828437600081840152601f19601f8201169050808301925050505050505091929192908035151590602001909291905050506121f8565b60405180821515815260200191505060405180910390f35b6109376127bf565b6040518082815260200191505060405180910390f35b6109556127cc565b6040518082815260200191505060405180910390f35b610a246004803603602081101561098157600080fd5b810190808035906020019064010000000081111561099e57600080fd5b8201836020820111156109b057600080fd5b803590602001918460018302840111640100000000831117156109d257600080fd5b91908080601f016020809104026020016040519081016040528093929190818152602001838380828437600081840152601f19601f8201169050808301925050505050505091929192905050506127d9565b60405180821515815260200191505060405180910390f35b610b9660048036036060811015610a5257600080fd5b8101908080359060200190640100000000811115610a6f57600080fd5b820183602082011115610a8157600080fd5b80359060200191846001830284011164010000000083111715610aa357600080fd5b91908080601f016020809104026020016040519081016040528093929190818152602001838380828437600081840152601f19601f82011690508083019250505050505050919291929080359060200190640100000000811115610b0657600080fd5b820183602082011115610b1857600080fd5b80359060200191846001830284011164010000000083111715610b3a57600080fd5b91908080601f016020809104026020016040519081016040528093929190818152602001838380828437600081840152601f19601f82011690508083019250505050505050919291929080359060200190929190505050612c3a565b60405180821515815260200191505060405180910390f35b610cfe60048036036040811015610bc457600080fd5b8101908080359060200190640100000000811115610be157600080fd5b820183602082011115610bf357600080fd5b80359060200191846001830284011164010000000083111715610c1557600080fd5b91908080601f016020809104026020016040519081016040528093929190818152602001838380828437600081840152601f19601f82011690508083019250505050505050919291929080359060200190640100000000811115610c7857600080fd5b820183602082011115610c8a57600080fd5b80359060200191846001830284011164010000000083111715610cac57600080fd5b91908080601f016020809104026020016040519081016040528093929190818152602001838380828437600081840152601f19601f820116905080830192505050505050509192919290505050613130565b6040518082815260200191505060405180910390f35b610e6460048036036040811015610d2a57600080fd5b8101908080359060200190640100000000811115610d4757600080fd5b820183602082011115610d5957600080fd5b80359060200191846001830284011164010000000083111715610d7b57600080fd5b91908080601f016020809104026020016040519081016040528093929190818152602001838380828437600081840152601f19601f82011690508083019250505050505050919291929080359060200190640100000000811115610dde57600080fd5b820183602082011115610df057600080fd5b80359060200191846001830284011164010000000083111715610e1257600080fd5b91908080601f016020809104026020016040519081016040528093929190818152602001838380828437600081840152601f19601f8201169050808301925050505050505091929192905050506134da565b60405180821515815260200191505060405180910390f35b610f3560048036036020811015610e9257600080fd5b8101908080359060200190640100000000811115610eaf57600080fd5b820183602082011115610ec157600080fd5b80359060200191846001830284011164010000000083111715610ee357600080fd5b91908080601f016020809104026020016040519081016040528093929190818152602001838380828437600081840152601f19601f8201169050808301925050505050505091929192905050506139a8565b6040518080602001828103825283818151815260200191508051906020019080838360005b83811015610f75578082015181840152602081019050610f5a565b50505050905090810190601f168015610fa25780820380516001836020036101000a031916815260200191505b509250505060405180910390f35b61106960048036036020811015610fc657600080fd5b8101908080359060200190640100000000811115610fe357600080fd5b820183602082011115610ff557600080fd5b8035906020019184600183028401116401000000008311171561101757600080fd5b91908080601f016020809104026020016040519081016040528093929190818152602001838380828437600081840152601f19601f820116905080830192505050505050509192919290505050613ba1565b6040518080602001806020018615158152602001858152602001848152602001838103835288818151815260200191508051906020019080838360005b838110156110c15780820151818401526020810190506110a6565b50505050905090810190601f1680156110ee5780820380516001836020036101000a031916815260200191505b50838103825287818151815260200191508051906020019080838360005b8381101561112757808201518184015260208101905061110c565b50505050905090810190601f1680156111545780820380516001836020036101000a031916815260200191505b5097505050505050505060405180910390f35b61116f613ed6565b6040518082815260200191505060405180910390f35b6112df6004803603606081101561119b57600080fd5b81019080803590602001906401000000008111156111b857600080fd5b8201836020820111156111ca57600080fd5b803590602001918460018302840111640100000000831117156111ec57600080fd5b91908080601f016020809104026020016040519081016040528093929190818152602001838380828437600081840152601f19601f8201169050808301925050505050505091929192908035906020019064010000000081111561124f57600080fd5b82018360208201111561126157600080fd5b8035906020019184600183028401116401000000008311171561128357600080fd5b91908080601f016020809104026020016040519081016040528093929190818152602001838380828437600081840152601f19601f82011690508083019250505050505050919291929080359060200190929190505050613ee3565b60405180821515815260200191505060405180910390f35b6004818154811061130457fe5b9060005260206000209060050201600091509050806000018054600181600116156101000203166002900480601f0160208091040260200160405190810160405280929190818152602001828054600181600116156101000203166002900480156113b05780601f10611385576101008083540402835291602001916113b0565b820191906000526020600020905b81548152906001019060200180831161139357829003601f168201915b5050505050905081565b600760009054906101000a900460ff1681565b600681815481106113da57fe5b9060005260206000209060040201600091509050806000018054600181600116156101000203166002900480601f0160208091040260200160405190810160405280929190818152602001828054600181600116156101000203166002900480156114865780601f1061145b57610100808354040283529160200191611486565b820191906000526020600020905b81548152906001019060200180831161146957829003601f168201915b505050505090806001018054600181600116156101000203166002900480601f0160208091040260200160405190810160405280929190818152602001828054600181600116156101000203166002900480156115245780601f106114f957610100808354040283529160200191611524565b820191906000526020600020905b81548152906001019060200180831161150757829003601f168201915b5050505050908060020160009054906101000a900460ff16908060020160019054906101000a900460ff16908060030154905085565b6000806000018054600181600116156101000203166002900480601f0160208091040260200160405190810160405280929190818152602001828054600181600116156101000203166002900480156115f45780601f106115c9576101008083540402835291602001916115f4565b820191906000526020600020905b8154815290600101906020018083116115d757829003601f168201915b5050505050908060010160009054906101000a900473ffffffffffffffffffffffffffffffffffffffff16905082565b6002818154811061163157fe5b9060005260206000209060090201600091509050806000018054600181600116156101000203166002900480601f0160208091040260200160405190810160405280929190818152602001828054600181600116156101000203166002900480156116dd5780601f106116b2576101008083540402835291602001916116dd565b820191906000526020600020905b8154815290600101906020018083116116c057829003601f168201915b505050505090806001018054600181600116156101000203166002900480601f01602080910402602001604051908101604052809291908181526020018280546001816001161561010002031660029004801561177b5780601f106117505761010080835404028352916020019161177b565b820191906000526020600020905b81548152906001019060200180831161175e57829003601f168201915b5050505050908060020160009054906101000a900460ff16908060030154908060060154905085565b600080821161181b576040517f08c379a00000000000000000000000000000000000000000000000000000000081526004018080602001828103825260188152602001807f416d6f756e74206d75737420626520706f73697469766521000000000000000081525060200191505060405180910390fd5b60008060008060005b6004805490508110156118da576004818154811061183e57fe5b906000526020600020906005020160000160405180828054600181600116156101000203166002900480156118aa5780601f106118885761010080835404028352918201916118aa565b820191906000526020600020905b815481529060010190602001808311611896575b50509150506040518091039020888051906020012014156118cd57600194508092505b8080600101915050611824565b5060005b60028054905081101561199457600281815481106118f857fe5b906000526020600020906009020160000160405180828054600181600116156101000203166002900480156119645780601f10611942576101008083540402835291820191611964565b820191906000526020600020905b815481529060010190602001808311611950575b505091505060405180910390208980519060200120141561198757600193508091505b80806001019150506118de565b506001151584151514611a0f576040517f08c379a00000000000000000000000000000000000000000000000000000000081526004018080602001828103825260158152602001807f42616e6b206e616d6520697320696e76616c696421000000000000000000000081525060200191505060405180910390fd5b6001151583151514611a89576040517f08c379a00000000000000000000000000000000000000000000000000000000081526004018080602001828103825260188152602001807f436f6d70616e79206e616d6520697320696e76616c696421000000000000000081525060200191505060405180910390fd5b6001151560028281548110611a9a57fe5b906000526020600020906009020160020160009054906101000a900460ff16151514611b11576040517f08c379a00000000000000000000000000000000000000000000000000000000081526004018080602001828103825260278152602001806146626027913960400191505060405180910390fd5b60028181548110611b1e57fe5b90600052602060002090600902016003015460048381548110611b3d57fe5b9060005260206000209060050201600401896040518082805190602001908083835b60208310611b825780518252602082019150602081019050602083039250611b5f565b6001836020036101000a03801982511681845116808217855250505050505090500191505090815260200160405180910390205403861115611c0f576040517f08c379a00000000000000000000000000000000000000000000000000000000081526004018080602001828103825260258152602001806146c76025913960400191505060405180910390fd5b6000611c1f898989600180614343565b905060048381548110611c2e57fe5b90600052602060002090600502016003018190806001815401808255809150506001900390600052602060002001600090919091909150558660048481548110611c7457fe5b90600052602060002090600502016004018a6040518082805190602001908083835b60208310611cb95780518252602082019150602081019050602083039250611c96565b6001836020036101000a03801982511681845116808217855250505050505090500191505090815260200160405180910390206000828254039250508190555060028281548110611d0657fe5b90600052602060002090600902016008018190806001815401808255809150506001900390600052602060002001600090919091909150556001955050505050509392505050565b6000828051906020012084805190602001201415611db7576040517f08c379a000000000000000000000000000000000000000000000000000000000815260040180806020018281038252602c815260200180614520602c913960400191505060405180910390fd5b60008211611e2d576040517f08c379a00000000000000000000000000000000000000000000000000000000081526004018080602001828103825260188152602001807f416d6f756e74206d75737420626520706f73697469766521000000000000000081525060200191505060405180910390fd5b60008060008060005b600280549050811015611f885760028181548110611e5057fe5b90600052602060002090600902016000016040518082805460018160011615610100020316600290048015611ebc5780601f10611e9a576101008083540402835291820191611ebc565b820191906000526020600020905b815481529060010190602001808311611ea8575b5050915050604051809103902089805190602001201415611edf57600194508092505b60028181548110611eec57fe5b90600052602060002090600902016000016040518082805460018160011615610100020316600290048015611f585780601f10611f36576101008083540402835291820191611f58565b820191906000526020600020905b815481529060010190602001808311611f44575b5050915050604051809103902088805190602001201415611f7b57600193508091505b8080600101915050611e36565b506001151584151514612003576040517f08c379a000000000000000000000000000000000000000000000000000000000815260040180806020018281038252601a8152602001807f436f6d70616e792041206e616d6520697320696e76616c69642100000000000081525060200191505060405180910390fd5b600115158315151461207d576040517f08c379a000000000000000000000000000000000000000000000000000000000815260040180806020018281038252601a8152602001807f436f6d70616e792042206e616d6520697320696e76616c69642100000000000081525060200191505060405180910390fd5b856002838154811061208b57fe5b90600052602060002090600902016003015410156120f4576040517f08c379a000000000000000000000000000000000000000000000000000000000815260040180806020018281038252603c8152602001806145c6603c913960400191505060405180910390fd5b6000612104898989600080614343565b9050866002848154811061211457fe5b9060005260206000209060090201600301600082825403925050819055506002838154811061213f57fe5b9060005260206000209060090201600501819080600181540180825580915050600190039060005260206000200160009091909190915055866002838154811061218557fe5b906000526020600020906009020160030160008282540192505081905550600282815481106121b057fe5b90600052602060002090600902016004018190806001815401808255809150506001900390600052602060002001600090919091909150556001955050505050509392505050565b60008060010160009054906101000a900473ffffffffffffffffffffffffffffffffffffffff1673ffffffffffffffffffffffffffffffffffffffff163373ffffffffffffffffffffffffffffffffffffffff16146122a2576040517f08c379a000000000000000000000000000000000000000000000000000000000815260040180806020018281038252602c81526020018061459a602c913960400191505060405180910390fd5b6040518060400160405280600481526020017f62616e6b00000000000000000000000000000000000000000000000000000000815250805190602001208380519060200120141561233e576040517f08c379a00000000000000000000000000000000000000000000000000000000081526004018080602001828103825260288152602001806145726028913960400191505060405180910390fd5b60005b600280549050811015612440576002818154811061235b57fe5b906000526020600020906009020160000160405180828054600181600116156101000203166002900480156123c75780601f106123a55761010080835404028352918201916123c7565b820191906000526020600020905b8154815290600101906020018083116123b3575b5050915050604051809103902085805190602001201415612433576040517f08c379a000000000000000000000000000000000000000000000000000000000815260040180806020018281038252602181526020018061472a6021913960400191505060405180910390fd5b8080600101915050612341565b5060005b600480549050811015612543576004818154811061245e57fe5b906000526020600020906005020160000160405180828054600181600116156101000203166002900480156124ca5780601f106124a85761010080835404028352918201916124ca565b820191906000526020600020905b8154815290600101906020018083116124b6575b5050915050604051809103902085805190602001201415612536576040517f08c379a000000000000000000000000000000000000000000000000000000000815260040180806020018281038252603e815260200180614689603e913960400191505060405180910390fd5b8080600101915050612444565b506002604051806101200160405280868152602001858152602001841515815260200160008152602001600067ffffffffffffffff8111801561258557600080fd5b506040519080825280602002602001820160405280156125b45781602001602082028036833780820191505090505b508152602001600067ffffffffffffffff811180156125d257600080fd5b506040519080825280602002602001820160405280156126015781602001602082028036833780820191505090505b50815260200160008152602001600067ffffffffffffffff8111801561262657600080fd5b506040519080825280602002602001820160405280156126555781602001602082028036833780820191505090505b508152602001600067ffffffffffffffff8111801561267357600080fd5b506040519080825280602002602001820160405280156126a25781602001602082028036833780820191505090505b50815250908060018154018082558091505060019003906000526020600020906009020160009091909190915060008201518160000190805190602001906126eb929190614435565b506020820151816001019080519060200190612708929190614435565b5060408201518160020160006101000a81548160ff02191690831515021790555060608201518160030155608082015181600401908051906020019061274f9291906144b5565b5060a082015181600501908051906020019061276c9291906144b5565b5060c0820151816006015560e08201518160070190805190602001906127939291906144b5565b506101008201518160080190805190602001906127b19291906144b5565b505050600190509392505050565b6000600680549050905090565b6000600480549050905090565b60008060010160009054906101000a900473ffffffffffffffffffffffffffffffffffffffff1673ffffffffffffffffffffffffffffffffffffffff163373ffffffffffffffffffffffffffffffffffffffff1614612883576040517f08c379a000000000000000000000000000000000000000000000000000000000815260040180806020018281038252602981526020018061474b6029913960400191505060405180910390fd5b60005b6004805490508110156129a257600481815481106128a057fe5b9060005260206000209060050201600001604051808280546001816001161561010002031660029004801561290c5780601f106128ea57610100808354040283529182019161290c565b820191906000526020600020905b8154815290600101906020018083116128f8575b5050915050604051809103902083805190602001201415612995576040517f08c379a000000000000000000000000000000000000000000000000000000000815260040180806020018281038252601e8152602001807f546869732062616e6b206e616d6520616c7265616479206578736974732e000081525060200191505060405180910390fd5b8080600101915050612886565b5060005b600280549050811015612aa557600281815481106129c057fe5b90600052602060002090600902016000016040518082805460018160011615610100020316600290048015612a2c5780601f10612a0a576101008083540402835291820191612a2c565b820191906000526020600020905b815481529060010190602001808311612a18575b5050915050604051809103902083805190602001201415612a98576040517f08c379a000000000000000000000000000000000000000000000000000000000815260040180806020018281038252603e8152602001806146ec603e913960400191505060405180910390fd5b80806001019150506129a6565b506004600181600181540180825580915050039060005260206000209050506000600460055481548110612ad557fe5b9060005260206000209060050201905060056000815480929190600101919050555082816000019080519060200190612b0f929190614435565b50600067ffffffffffffffff81118015612b2857600080fd5b50604051908082528060200260200182016040528015612b575781602001602082028036833780820191505090505b50816001019080519060200190612b6f9291906144b5565b50600067ffffffffffffffff81118015612b8857600080fd5b50604051908082528060200260200182016040528015612bb75781602001602082028036833780820191505090505b50816002019080519060200190612bcf9291906144b5565b50600067ffffffffffffffff81118015612be857600080fd5b50604051908082528060200260200182016040528015612c175781602001602082028036833780820191505090505b50816003019080519060200190612c2f9291906144b5565b506001915050919050565b6000808211612cb1576040517f08c379a00000000000000000000000000000000000000000000000000000000081526004018080602001828103825260188152602001807f416d6f756e74206d75737420626520706f73697469766521000000000000000081525060200191505060405180910390fd5b60008060008060005b600480549050811015612d705760048181548110612cd457fe5b90600052602060002090600502016000016040518082805460018160011615610100020316600290048015612d405780601f10612d1e576101008083540402835291820191612d40565b820191906000526020600020905b815481529060010190602001808311612d2c575b5050915050604051809103902089805190602001201415612d6357600194508092505b8080600101915050612cba565b5060005b600280549050811015612e2a5760028181548110612d8e57fe5b90600052602060002090600902016000016040518082805460018160011615610100020316600290048015612dfa5780601f10612dd8576101008083540402835291820191612dfa565b820191906000526020600020905b815481529060010190602001808311612de6575b5050915050604051809103902088805190602001201415612e1d57600193508091505b8080600101915050612d74565b506001151584151514612ea5576040517f08c379a00000000000000000000000000000000000000000000000000000000081526004018080602001828103825260158152602001807f42616e6b206e616d6520697320696e76616c696421000000000000000000000081525060200191505060405180910390fd5b6001151583151514612f1f576040517f08c379a00000000000000000000000000000000000000000000000000000000081526004018080602001828103825260188152602001807f436f6d70616e79206e616d6520697320696e76616c696421000000000000000081525060200191505060405180910390fd5b6001151560028281548110612f3057fe5b906000526020600020906009020160020160009054906101000a900460ff16151514612fc4576040517f08c379a00000000000000000000000000000000000000000000000000000000081526004018080602001828103825260178152602001807f436f6d70616e79206973206e6f7420747275737465642100000000000000000081525060200191505060405180910390fd5b6000612fd589898960016000614343565b905060048381548110612fe457fe5b9060005260206000209060050201600201819080600181540180825580915050600190039060005260206000200160009091909190915055866004848154811061302a57fe5b9060005260206000209060050201600401896040518082805190602001908083835b6020831061306f578051825260208201915060208101905060208303925061304c565b6001836020036101000a03801982511681845116808217855250505050505090500191505090815260200160405180910390206000828254019250508190555086600283815481106130bd57fe5b906000526020600020906009020160030160008282540192505081905550600282815481106130e857fe5b90600052602060002090600902016004018190806001815401808255809150506001900390600052602060002001600090919091909150556001955050505050509392505050565b600080600090506000806000805b6004805490508110156131f4576004818154811061315857fe5b906000526020600020906005020160000160405180828054600181600116156101000203166002900480156131c45780601f106131a25761010080835404028352918201916131c4565b820191906000526020600020905b8154815290600101906020018083116131b0575b50509150506040518091039020888051906020012014156131e757600194508092505b808060010191505061313e565b5060005b6002805490508110156132ae576002818154811061321257fe5b9060005260206000209060090201600001604051808280546001816001161561010002031660029004801561327e5780601f1061325c57610100808354040283529182019161327e565b820191906000526020600020905b81548152906001019060200180831161326a575b50509150506040518091039020878051906020012014156132a157600193508091505b80806001019150506131f8565b506001151584151514613329576040517f08c379a00000000000000000000000000000000000000000000000000000000081526004018080602001828103825260158152602001807f42616e6b206e616d6520697320696e76616c696421000000000000000000000081525060200191505060405180910390fd5b60011515831515146133a3576040517f08c379a00000000000000000000000000000000000000000000000000000000081526004018080602001828103825260188152602001807f436f6d70616e79206e616d6520697320696e76616c696421000000000000000081525060200191505060405180910390fd5b60011515600282815481106133b457fe5b906000526020600020906009020160020160009054906101000a900460ff16151514613448576040517f08c379a00000000000000000000000000000000000000000000000000000000081526004018080602001828103825260178152602001807f436f6d70616e79206973206e6f7420747275737465642100000000000000000081525060200191505060405180910390fd5b6004828154811061345557fe5b9060005260206000209060050201600401866040518082805190602001908083835b6020831061349a5780518252602082019150602081019050602083039250613477565b6001836020036101000a03801982511681845116808217855250505050505090500191505090815260200160405180910390205494505050505092915050565b600080600090506000806000805b60048054905081101561359e576004818154811061350257fe5b9060005260206000209060050201600001604051808280546001816001161561010002031660029004801561356e5780601f1061354c57610100808354040283529182019161356e565b820191906000526020600020905b81548152906001019060200180831161355a575b505091505060405180910390208780519060200120141561359157600194508092505b80806001019150506134e8565b5060005b60028054905081101561365857600281815481106135bc57fe5b906000526020600020906009020160000160405180828054600181600116156101000203166002900480156136285780601f10613606576101008083540402835291820191613628565b820191906000526020600020905b815481529060010190602001808311613614575b505091505060405180910390208880519060200120141561364b57600193508091505b80806001019150506135a2565b5060011515841515146136d3576040517f08c379a00000000000000000000000000000000000000000000000000000000081526004018080602001828103825260158152602001807f42616e6b206e616d6520697320696e76616c696421000000000000000000000081525060200191505060405180910390fd5b600115158315151461374d576040517f08c379a00000000000000000000000000000000000000000000000000000000081526004018080602001828103825260188152602001807f436f6d70616e79206e616d6520697320696e76616c696421000000000000000081525060200191505060405180910390fd5b600115156002828154811061375e57fe5b906000526020600020906009020160020160009054906101000a900460ff161515146137d5576040517f08c379a00000000000000000000000000000000000000000000000000000000081526004018080602001828103825260338152602001806146026033913960400191505060405180910390fd5b600482815481106137e257fe5b9060005260206000209060050201600401876040518082805190602001908083835b602083106138275780518252602082019150602081019050602083039250613804565b6001836020036101000a0380198251168184511680821785525050505050509050019150509081526020016040518091039020546002828154811061386857fe5b906000526020600020906009020160030154146138d0576040517f08c379a000000000000000000000000000000000000000000000000000000000815260040180806020018281038252602d815260200180614635602d913960400191505060405180910390fd5b6000600282815481106138df57fe5b90600052602060002090600902016003018190555060006004838154811061390357fe5b9060005260206000209060050201600401886040518082805190602001908083835b602083106139485780518252602082019150602081019050602083039250613925565b6001836020036101000a0380198251168184511680821785525050505050509050019150509081526020016040518091039020819055506001600760006101000a81548160ff021916908315150217905550600194505050505092915050565b606060008060005b600480549050811015613a6657600481815481106139ca57fe5b90600052602060002090600502016000016040518082805460018160011615610100020316600290048015613a365780601f10613a14576101008083540402835291820191613a36565b820191906000526020600020905b815481529060010190602001808311613a22575b5050915050604051809103902085805190602001201415613a5957600192508091505b80806001019150506139b0565b506001151582151514613ae1576040517f08c379a00000000000000000000000000000000000000000000000000000000081526004018080602001828103825260158152602001807f42616e6b206e616d6520697320696e76616c696421000000000000000000000081525060200191505060405180910390fd5b60048181548110613aee57fe5b90600052602060002090600502016000018054600181600116156101000203166002900480601f016020809104026020016040519081016040528092919081815260200182805460018160011615610100020316600290048015613b935780601f10613b6857610100808354040283529160200191613b93565b820191906000526020600020905b815481529060010190602001808311613b7657829003601f168201915b505050505092505050919050565b606080600080600080600090506000805b600280549050811015613c685760028181548110613bcc57fe5b90600052602060002090600902016000016040518082805460018160011615610100020316600290048015613c385780601f10613c16576101008083540402835291820191613c38565b820191906000526020600020905b815481529060010190602001808311613c24575b5050915050604051809103902089805190602001201415613c5b57600192508091505b8080600101915050613bb2565b506001151582151514613ce3576040517f08c379a000000000000000000000000000000000000000000000000000000000815260040180806020018281038252601a8152602001807f436f6d70616e792041206e616d6520697320696e76616c69642100000000000081525060200191505060405180910390fd5b60028181548110613cf057fe5b906000526020600020906009020160000160028281548110613d0e57fe5b906000526020600020906009020160010160028381548110613d2c57fe5b906000526020600020906009020160020160009054906101000a900460ff1660028481548110613d5857fe5b90600052602060002090600902016003015460028581548110613d7757fe5b906000526020600020906009020160060154848054600181600116156101000203166002900480601f016020809104026020016040519081016040528092919081815260200182805460018160011615610100020316600290048015613e1e5780601f10613df357610100808354040283529160200191613e1e565b820191906000526020600020905b815481529060010190602001808311613e0157829003601f168201915b50505050509450838054600181600116156101000203166002900480601f016020809104026020016040519081016040528092919081815260200182805460018160011615610100020316600290048015613eba5780601f10613e8f57610100808354040283529160200191613eba565b820191906000526020600020905b815481529060010190602001808311613e9d57829003601f168201915b5050505050935096509650965096509650505091939590929450565b6000600280549050905090565b6000808211613f5a576040517f08c379a00000000000000000000000000000000000000000000000000000000081526004018080602001828103825260188152602001807f416d6f756e74206d75737420626520706f73697469766521000000000000000081525060200191505060405180910390fd5b60008060008060005b6004805490508110156140195760048181548110613f7d57fe5b90600052602060002090600502016000016040518082805460018160011615610100020316600290048015613fe95780601f10613fc7576101008083540402835291820191613fe9565b820191906000526020600020905b815481529060010190602001808311613fd5575b505091505060405180910390208980519060200120141561400c57600194508092505b8080600101915050613f63565b5060005b6002805490508110156140d3576002818154811061403757fe5b906000526020600020906009020160000160405180828054600181600116156101000203166002900480156140a35780601f106140815761010080835404028352918201916140a3565b820191906000526020600020905b81548152906001019060200180831161408f575b50509150506040518091039020888051906020012014156140c657600193508091505b808060010191505061401d565b50600115158415151461414e576040517f08c379a00000000000000000000000000000000000000000000000000000000081526004018080602001828103825260158152602001807f42616e6b206e616d6520697320696e76616c696421000000000000000000000081525060200191505060405180910390fd5b60011515831515146141c8576040517f08c379a00000000000000000000000000000000000000000000000000000000081526004018080602001828103825260188152602001807f436f6d70616e79206e616d6520697320696e76616c696421000000000000000081525060200191505060405180910390fd5b85600282815481106141d657fe5b906000526020600020906009020160030154101561423f576040517f08c379a000000000000000000000000000000000000000000000000000000000815260040180806020018281038252602681526020018061454c6026913960400191505060405180910390fd5b600061424f898989600180614343565b90506004838154811061425e57fe5b906000526020600020906005020160020181908060018154018082558091505060019003906000526020600020016000909190919091505586600283815481106142a457fe5b90600052602060002090600902016003016000828254039250508190555086600283815481106142d057fe5b906000526020600020906009020160060160008282540192505081905550600282815481106142fb57fe5b90600052602060002090600902016007018190806001815401808255809150506001900390600052602060002001600090919091909150556001955050505050509392505050565b600060066040518060a001604052808881526020018781526020018515158152602001841515815260200186815250908060018154018082558091505060019003906000526020600020906004020160009091909190915060008201518160000190805190602001906143b7929190614435565b5060208201518160010190805190602001906143d4929190614435565b5060408201518160020160006101000a81548160ff02191690831515021790555060608201518160020160016101000a81548160ff021916908315150217905550608082015181600301555050600160068054905003905095945050505050565b828054600181600116156101000203166002900490600052602060002090601f016020900481019282601f1061447657805160ff19168380011785556144a4565b828001600101855582156144a4579182015b828111156144a3578251825591602001919060010190614488565b5b5090506144b19190614502565b5090565b8280548282559060005260206000209081019282156144f1579160200282015b828111156144f05782518255916020019190600101906144d5565b5b5090506144fe9190614502565b5090565b5b8082111561451b576000816000905550600101614503565b509056fe436f6d70616e79204120616e6420436f6d70616e7920422073686f756c6420626520646966666572656e7421436f6d70616e7927732063726564697420617373657374206973206e6f7420656e6f75676821506c65617365207573652061646442616e6b206d6574686f6420746f2061646420612062616e6b2e4f6e6c7920617262697472616c20696e737469747574696f6e2063616e20616464206120636f6d70616e792e436f6d70616e79204127732063726564697441737365742073686f756c64206265206d6f7265207468616e20746865206c6f616e20616d6f756e74214f6e6c79207472757374656420636f6d70616e792063616e2066696e69736820627573696e65737320776974682062616e6b21546865207472757374656420636f6d70616e79207374696c6c2068617320756e726570616964206d6f6e6579214f6e6c79207472757374656420636f6d70616e792063616e20726570617920746f2062616e6b2143616e6e6f74206164642074686520636f6d70616e79206265636175736520612062616e6b206f66207468652073616d65206e616d65206578736974732e526570617920616d6f756e74206973206d6f7265207468616e20746865206e65656465642143616e6e6f7420616464207468652062616e6b2062656361757365206120636f6d70616e79206f66207468652073616d65206e616d65206578736974732e5468697320636f6d70616e79206e616d6520616c7265616479206578736974732e4f6e6c7920617262697472616c20696e737469747574696f6e2063616e2061646420612062616e6b2ea2646970667358221220b1158082c3b879a3de1352c5eac60aa90c0ed060ce1c4805d4a12faa06399d7864736f6c63430007010033",
  "immutableReferences": {},
  "source": "\r\n// SPDX-License-Identifier: GPL-3.0\r\npragma solidity ^0.7.0;\r\n\r\ncontract Loan {\r\n\r\n    struct Arbitral {\r\n        string ArbitralName;\r\n        address ArbitralInstitutionAddress;\r\n    }\r\n\r\n    struct Bank {\r\n        string bankName;\r\n\r\n        uint[] ReceiptIndex_loanMoneyToCompany;\r\n\r\n        uint[] ReceiptIndex_authorizeCreditAssetToCompany;\r\n\r\n        uint[] ReceiptIndex_getRepaidMoneyFromTrustedCompany;\r\n\r\n        mapping (string => uint) companyDebtAmount;\r\n    }\r\n\r\n    struct Company {\r\n        string companyName;\r\n        string companyType;\r\n\r\n        bool isTrusted;\r\n\r\n        uint creditAsset;\r\n        uint[] ReceiptIndex_getCreditAssetFromCompanyOrBank;\r\n        uint[] ReceiptIndex_giveCreditAssetToCompany;\r\n\r\n        uint realMoney;\r\n        uint[] ReceiptIndex_getRealMoneyFromBank;\r\n        uint[] ReceiptIndex_repayRealMoneyToBank;\r\n    }\r\n\r\n    struct Receipt_A_gives_things_to_B {\r\n        string Name_A;\r\n        string Name_B;\r\n        bool bankParticipation;\r\n        bool isRealMoney;\r\n        uint amount;\r\n    }\r\n    \r\n    Arbitral public arbitralInstitution;\r\n    \r\n    Company[] public companies;\r\n    uint numCompanies;\r\n    Bank[] public banks;\r\n    uint numBanks;\r\n    Receipt_A_gives_things_to_B[] public receipts;\r\n    \r\n    bool public trustedCompanyHasFinishedWithBank = false;\r\n    \r\n    \r\n    constructor(string memory arbitralInstitutionName){\r\n        arbitralInstitution = Arbitral({\r\n            ArbitralName: arbitralInstitutionName,\r\n            ArbitralInstitutionAddress: msg.sender\r\n        });\r\n    }\r\n    \r\n    \r\n    function addCompany(string memory cpName, string memory cpType, bool whetherTrusted) external returns (bool)  {\r\n        require(msg.sender == arbitralInstitution.ArbitralInstitutionAddress, \"Only arbitral institution can add a company.\");\r\n        require(keccak256(bytes(cpType)) != keccak256(bytes(\"bank\")), \"Please use addBank method to add a bank.\") ;\r\n        for(uint i = 0; i < companies.length; i++) {\r\n            require(keccak256(bytes(cpName)) != keccak256(bytes(companies[i].companyName)), \"This company name already exsits.\");\r\n        }\r\n        for(uint j = 0; j < banks.length; j++) {\r\n            require(keccak256(bytes(cpName)) != keccak256(bytes(banks[j].bankName)), \"Cannot add the company because a bank of the same name exsits.\");\r\n        }\r\n        \r\n        companies.push(Company({\r\n            companyName: cpName, \r\n            companyType: cpType, \r\n            isTrusted: whetherTrusted,\r\n            creditAsset: 0,\r\n            ReceiptIndex_getCreditAssetFromCompanyOrBank: new uint[](0),\r\n            \r\n            ReceiptIndex_giveCreditAssetToCompany: new uint[](0),\r\n            \r\n            realMoney: 0,\r\n            ReceiptIndex_getRealMoneyFromBank: new uint[](0),\r\n            ReceiptIndex_repayRealMoneyToBank: new uint[](0)\r\n        }));\r\n        \r\n        \r\n        /*\r\n        Company storage c = new Company;\r\n        c.companyName = cpName;\r\n        c.companyType = cpType;\r\n        c.isTrusted = whetherTrusted;\r\n        c.creditAsset = 0;\r\n        c.ReceiptIndex_getCreditAssetFromCompanyOrBank = new uint[](0);\r\n        c.ReceiptIndex_giveCreditAssetToCompany = new uint[](0);\r\n        c.realMoney = 0;\r\n        c.ReceiptIndex_getRealMoneyFromBank = new uint[](0);\r\n        c.ReceiptIndex_repayRealMoneyToBank = new uint[](0);\r\n        companies.push(c);\r\n        */\r\n\r\n        return true;\r\n    }\r\n    \r\n    \r\n    function addBank(string memory bName) external returns(bool) {\r\n        require(msg.sender == arbitralInstitution.ArbitralInstitutionAddress, \"Only arbitral institution can add a bank.\");\r\n        for(uint i = 0; i < banks.length; i++) {\r\n            require(keccak256(bytes(bName)) != keccak256(bytes(banks[i].bankName)), \"This bank name already exsits.\");\r\n        }\r\n        for(uint j = 0; j < companies.length; j++) {\r\n            require(keccak256(bytes(bName)) != keccak256(bytes(companies[j].companyName)), \"Cannot add the bank because a company of the same name exsits.\");\r\n        }\r\n        /*\r\n        banks.push(Bank({\r\n            bankName: bName, \r\n            ReceiptIndex_loanMoneyToCompany: new uint[](0),\r\n            ReceiptIndex_authorizeCreditAssetToCompany: new uint[](0),\r\n            ReceiptIndex_getRepaidMoneyFromTrustedCompany: new uint[](0)\r\n        }));\r\n        */\r\n\r\n        /*\r\n        Bank storage b = new Bank;\r\n        b.bankName = bName;\r\n        b.ReceiptIndex_loanMoneyToCompany = new uint[](0);\r\n        b.ReceiptIndex_authorizeCreditAssetToCompany = new uint[](0);\r\n        b.ReceiptIndex_getRepaidMoneyFromTrustedCompany = new uint[](0);\r\n        banks.push(b);\r\n        */\r\n\r\n        banks.push();\r\n        Bank storage b = banks[numBanks];\r\n        numBanks ++;\r\n        b.bankName = bName;\r\n        b.ReceiptIndex_loanMoneyToCompany = new uint[](0);\r\n        b.ReceiptIndex_authorizeCreditAssetToCompany = new uint[](0);\r\n        b.ReceiptIndex_getRepaidMoneyFromTrustedCompany = new uint[](0);\r\n\r\n        return true;\r\n    }\r\n    \r\n    function newReceipt(string memory nameA, string memory nameB, uint amt, bool bankParticipates, bool realMoney) internal returns(uint) {\r\n        receipts.push(Receipt_A_gives_things_to_B({\r\n            Name_A: nameA, \r\n            Name_B: nameB, \r\n            amount: amt, \r\n            bankParticipation: bankParticipates,\r\n            isRealMoney: realMoney\r\n        }));\r\n        return receipts.length - 1;\r\n    }\r\n\r\n    function bank_giveCreditAssetTo_trustedCompany(string memory bName, string memory cpName, uint amt) external returns(bool) {\r\n        require(amt > 0, \"Amount must be positive!\");\r\n        bool bName_Valid = false;\r\n        bool cpName_Valid = false;\r\n        uint b_Index = 0;\r\n        uint cp_Index = 0;\r\n        for(uint j = 0; j < banks.length; j++) {\r\n            if(keccak256(bytes(bName)) == keccak256(bytes(banks[j].bankName))) {\r\n                bName_Valid = true;\r\n                b_Index = j;\r\n            }\r\n        }\r\n        for(uint i = 0; i < companies.length; i++) {\r\n            if(keccak256(bytes(cpName)) == keccak256(bytes(companies[i].companyName))) {\r\n                cpName_Valid = true;\r\n                cp_Index = i;\r\n            }\r\n        }\r\n        require(bName_Valid == true, \"Bank name is invalid!\");\r\n        require(cpName_Valid == true, \"Company name is invalid!\");\r\n\r\n        require(companies[cp_Index].isTrusted == true, \"Company is not trusted!\");\r\n\r\n        uint currentReceiptIndex = newReceipt(bName, cpName, amt, true, false);\r\n\r\n        banks[b_Index].ReceiptIndex_authorizeCreditAssetToCompany.push(currentReceiptIndex);\r\n        banks[b_Index].companyDebtAmount[cpName] += amt;\r\n\r\n        companies[cp_Index].creditAsset += amt;\r\n        companies[cp_Index].ReceiptIndex_getCreditAssetFromCompanyOrBank.push(currentReceiptIndex);\r\n\r\n        return true;\r\n    }\r\n\r\n\r\n    function companyA_giveCreditAssetTo_companyB(string memory companyName_A, string memory companyName_B, uint amt) external  returns(bool) {\r\n        require(keccak256(bytes(companyName_A)) != keccak256(bytes(companyName_B)), \"Company A and Company B should be different!\");\r\n        require(amt > 0, \"Amount must be positive!\");\r\n        bool Name_A_Valid = false;\r\n        bool Name_B_Valid = false;\r\n        uint companyA_Index = 0;\r\n        uint companyB_Index = 0;\r\n        for(uint i = 0; i < companies.length; i++) {\r\n            if(keccak256(bytes(companyName_A)) == keccak256(bytes(companies[i].companyName))) {\r\n                Name_A_Valid = true;\r\n                companyA_Index = i;\r\n            }\r\n            if(keccak256(bytes(companyName_B)) == keccak256(bytes(companies[i].companyName))) {\r\n                Name_B_Valid = true;\r\n                companyB_Index = i;\r\n            }\r\n        }\r\n        require(Name_A_Valid == true, \"Company A name is invalid!\");\r\n        require(Name_B_Valid == true, \"Company B name is invalid!\");\r\n        require(companies[companyA_Index].creditAsset >= amt, \"Company A's creditAsset should be more than the loan amount!\");\r\n\r\n        uint currentReceiptIndex = newReceipt(companyName_A, companyName_B, amt, false, false);\r\n\r\n        companies[companyA_Index].creditAsset -= amt;\r\n        companies[companyA_Index].ReceiptIndex_giveCreditAssetToCompany.push(currentReceiptIndex);\r\n\r\n        companies[companyB_Index].creditAsset += amt;\r\n        companies[companyB_Index].ReceiptIndex_getCreditAssetFromCompanyOrBank.push(currentReceiptIndex);\r\n\r\n        return true;\r\n    }\r\n\r\n\r\n    function bank_giveRealMoneyTo_company(string memory bName, string memory cpName, uint amt) external returns(bool) {\r\n        require(amt > 0, \"Amount must be positive!\");\r\n        bool bName_Valid = false;\r\n        bool cpName_Valid = false;\r\n        uint b_Index = 0;\r\n        uint cp_Index = 0;\r\n        for(uint j = 0; j < banks.length; j++) {\r\n            if(keccak256(bytes(bName)) == keccak256(bytes(banks[j].bankName))) {\r\n                bName_Valid = true;\r\n                b_Index = j;\r\n            }\r\n        }\r\n        for(uint i = 0; i < companies.length; i++) {\r\n            if(keccak256(bytes(cpName)) == keccak256(bytes(companies[i].companyName))) {\r\n                cpName_Valid = true;\r\n                cp_Index = i;\r\n            }\r\n        }\r\n        require(bName_Valid == true, \"Bank name is invalid!\");\r\n        require(cpName_Valid == true, \"Company name is invalid!\");\r\n\r\n        require(companies[cp_Index].creditAsset >= amt, \"Company's credit assest is not enough!\");\r\n\r\n        uint currentReceiptIndex = newReceipt(bName, cpName, amt, true, true);\r\n\r\n        banks[b_Index].ReceiptIndex_authorizeCreditAssetToCompany.push(currentReceiptIndex);\r\n\r\n        companies[cp_Index].creditAsset -= amt;\r\n        companies[cp_Index].realMoney += amt;\r\n        companies[cp_Index].ReceiptIndex_getRealMoneyFromBank.push(currentReceiptIndex);\r\n\r\n        return true;\r\n    }\r\n\r\n\r\n    function trustedCompany_repaidTo_bank(string memory cpName, string memory bName, uint amt) external returns(bool) {\r\n        require(amt > 0, \"Amount must be positive!\");\r\n        bool bName_Valid = false;\r\n        bool cpName_Valid = false;\r\n        uint b_Index = 0;\r\n        uint cp_Index = 0;\r\n        for(uint j = 0; j < banks.length; j++) {\r\n            if(keccak256(bytes(bName)) == keccak256(bytes(banks[j].bankName))) {\r\n                bName_Valid = true;\r\n                b_Index = j;\r\n            }\r\n        }\r\n        for(uint i = 0; i < companies.length; i++) {\r\n            if(keccak256(bytes(cpName)) == keccak256(bytes(companies[i].companyName))) {\r\n                cpName_Valid = true;\r\n                cp_Index = i;\r\n            }\r\n        }\r\n        require(bName_Valid == true, \"Bank name is invalid!\");\r\n        require(cpName_Valid == true, \"Company name is invalid!\");\r\n\r\n        require(companies[cp_Index].isTrusted == true, \"Only trusted company can repay to bank!\");\r\n        require(amt <= (banks[b_Index].companyDebtAmount[cpName] - companies[cp_Index].creditAsset), \"Repay amount is more than the needed!\");\r\n\r\n        uint currentReceiptIndex = newReceipt(cpName, bName, amt, true, true);\r\n\r\n        banks[b_Index].ReceiptIndex_getRepaidMoneyFromTrustedCompany.push(currentReceiptIndex);\r\n        banks[b_Index].companyDebtAmount[cpName] -= amt;\r\n\r\n        companies[cp_Index].ReceiptIndex_repayRealMoneyToBank.push(currentReceiptIndex);\r\n\r\n        return true;     \r\n\r\n    }\r\n\r\n\r\n    function trustedCompany_FinishWith_Bank(string memory cpName, string memory bName) external returns(bool) {\r\n        bool bName_Valid = false;\r\n        bool cpName_Valid = false;\r\n        uint b_Index = 0;\r\n        uint cp_Index = 0;\r\n        for(uint j = 0; j < banks.length; j++) {\r\n            if(keccak256(bytes(bName)) == keccak256(bytes(banks[j].bankName))) {\r\n                bName_Valid = true;\r\n                b_Index = j;\r\n            }\r\n        }\r\n        for(uint i = 0; i < companies.length; i++) {\r\n            if(keccak256(bytes(cpName)) == keccak256(bytes(companies[i].companyName))) {\r\n                cpName_Valid = true;\r\n                cp_Index = i;\r\n            }\r\n        }\r\n        require(bName_Valid == true, \"Bank name is invalid!\");\r\n        require(cpName_Valid == true, \"Company name is invalid!\");\r\n\r\n        require(companies[cp_Index].isTrusted == true, \"Only trusted company can finish business with bank!\");\r\n\r\n        require(companies[cp_Index].creditAsset == banks[b_Index].companyDebtAmount[cpName], \"The trusted company still has unrepaid money!\");\r\n\r\n        companies[cp_Index].creditAsset = 0;\r\n        banks[b_Index].companyDebtAmount[cpName] = 0;\r\n        trustedCompanyHasFinishedWithBank = true;\r\n\r\n        return true;\r\n    }\r\n    \r\n\r\n    function getCompanyInfoByName(string memory cpName) external view returns(string memory, string memory, bool, uint, uint) {\r\n        bool Name_A_Valid = false;\r\n        uint companyA_Index = 0;\r\n        for(uint i = 0; i < companies.length; i++) {\r\n            if(keccak256(bytes(cpName)) == keccak256(bytes(companies[i].companyName))) {\r\n                Name_A_Valid = true;\r\n                companyA_Index = i;\r\n            }\r\n        }\r\n        require(Name_A_Valid == true, \"Company A name is invalid!\");\r\n        return (companies[companyA_Index].companyName, \r\n                companies[companyA_Index].companyType, \r\n                companies[companyA_Index].isTrusted, \r\n                companies[companyA_Index].creditAsset, \r\n                companies[companyA_Index].realMoney);\r\n    }\r\n\r\n\r\n    function getBankInfoByName(string memory bName) external view returns(string memory) {\r\n        bool bName_Valid = false;\r\n        uint b_Index = 0;\r\n        for(uint j = 0; j < banks.length; j++) {\r\n            if(keccak256(bytes(bName)) == keccak256(bytes(banks[j].bankName))) {\r\n                bName_Valid = true;\r\n                b_Index = j;\r\n            }\r\n        }\r\n        require(bName_Valid == true, \"Bank name is invalid!\");\r\n        return banks[b_Index].bankName;\r\n    }\r\n\r\n\r\n    function getAmountOfCreditAsset_bankGiveToTrustedCompany(string memory bName, string memory cpName) external view returns(uint) {\r\n        bool bName_Valid = false;\r\n        bool cpName_Valid = false;\r\n        uint b_Index = 0;\r\n        uint cp_Index = 0;\r\n        for(uint j = 0; j < banks.length; j++) {\r\n            if(keccak256(bytes(bName)) == keccak256(bytes(banks[j].bankName))) {\r\n                bName_Valid = true;\r\n                b_Index = j;\r\n            }\r\n        }\r\n        for(uint i = 0; i < companies.length; i++) {\r\n            if(keccak256(bytes(cpName)) == keccak256(bytes(companies[i].companyName))) {\r\n                cpName_Valid = true;\r\n                cp_Index = i;\r\n            }\r\n        }\r\n        require(bName_Valid == true, \"Bank name is invalid!\");\r\n        require(cpName_Valid == true, \"Company name is invalid!\");\r\n\r\n        require(companies[cp_Index].isTrusted == true, \"Company is not trusted!\");\r\n\r\n        return banks[b_Index].companyDebtAmount[cpName];\r\n    }\r\n\r\n\r\n    function getCompanyNum() external view returns(uint) {\r\n        return companies.length;\r\n    }\r\n\r\n\r\n    function getBankNum() external view returns (uint) {\r\n        return banks.length;\r\n    }\r\n\r\n\r\n    function getReceiptNum() external view returns (uint) {\r\n        return receipts.length;\r\n    }\r\n\r\n\r\n}",
  "sourcePath": "/c/Users/64144/Conflux Studio/LOAN/contracts/LOAN.sol",
  "compiler": {
    "name": "solc",
    "version": "0.7.1+commit.f4a555be.Linux.g++"
  },
  "schemaVersion": "3.2.0",
  "updatedAt": "2020-12-07T19:51:21.583Z",
  "devdoc": {
    "kind": "dev",
    "methods": {},
    "version": 1
  },
  "userdoc": {
    "kind": "user",
    "methods": {},
    "version": 1
  }
}